{
  "contractName": "MedRec",
  "abi": [
    {
      "constant": false,
      "inputs": [
        {
          "name": "patientID",
          "type": "uint256"
        },
        {
          "name": "_name",
          "type": "string"
        },
        {
          "name": "_year",
          "type": "uint256"
        },
        {
          "name": "_month",
          "type": "uint256"
        },
        {
          "name": "_day",
          "type": "uint256"
        },
        {
          "name": "curr_year",
          "type": "uint256"
        },
        {
          "name": "curr_month",
          "type": "uint256"
        },
        {
          "name": "curr_day",
          "type": "uint256"
        },
        {
          "name": "_problem",
          "type": "string"
        },
        {
          "name": "_doctor",
          "type": "string"
        }
      ],
      "name": "registration",
      "outputs": [],
      "payable": false,
      "stateMutability": "nonpayable",
      "type": "function",
      "signature": "0x9e24fc0f"
    },
    {
      "constant": true,
      "inputs": [
        {
          "name": "_ID",
          "type": "uint256"
        }
      ],
      "name": "vewPatient",
      "outputs": [
        {
          "name": "",
          "type": "string"
        }
      ],
      "payable": false,
      "stateMutability": "view",
      "type": "function",
      "signature": "0xf37add28"
    }
  ],
  "bytecode": "0x608060405234801561001057600080fd5b5061054d806100206000396000f3fe60806040526004361061004b5763ffffffff7c01000000000000000000000000000000000000000000000000000000006000350416639e24fc0f8114610050578063f37add2814610072575b600080fd5b34801561005c57600080fd5b5061007061006b366004610313565b6100a8565b005b34801561007e57600080fd5b5061009261008d3660046102ed565b61014c565b60405161009f9190610469565b60405180910390f35b60008a8152602081815260409091208a516100c5928c01906101eb565b5060008a815260208181526040909120600181018a905560028101899055600381018890556004810187905560058101869055600681018590558987036007820155835161011b926008909201918501906101eb565b5060008a815260208181526040909120825161013f926009909201918401906101eb565b5050505050505050505050565b6000818152602081815260409182902080548351601f60026000196101006001861615020190931692909204918201849004840281018401909452808452606093928301828280156101df5780601f106101b4576101008083540402835291602001916101df565b820191906000526020600020905b8154815290600101906020018083116101c257829003601f168201915b50505050509050919050565b828054600181600116156101000203166002900490600052602060002090601f016020900481019282601f1061022c57805160ff1916838001178555610259565b82800160010185558215610259579182015b8281111561025957825182559160200191906001019061023e565b50610265929150610269565b5090565b61028391905b80821115610265576000815560010161026f565b90565b6000601f8201831361029757600080fd5b81356102aa6102a5826104a1565b61047a565b915080825260208301602083018583830111156102c657600080fd5b6102d18382846104cd565b50505092915050565b60006102e68235610283565b9392505050565b6000602082840312156102ff57600080fd5b600061030b84846102da565b949350505050565b6000806000806000806000806000806101408b8d03121561033357600080fd5b600061033f8d8d6102da565b9a505060208b013567ffffffffffffffff81111561035c57600080fd5b6103688d828e01610286565b99505060406103798d828e016102da565b985050606061038a8d828e016102da565b975050608061039b8d828e016102da565b96505060a06103ac8d828e016102da565b95505060c06103bd8d828e016102da565b94505060e06103ce8d828e016102da565b9350506101008b013567ffffffffffffffff8111156103ec57600080fd5b6103f88d828e01610286565b9250506101208b013567ffffffffffffffff81111561041657600080fd5b6104228d828e01610286565b9150509295989b9194979a5092959850565b600061043f826104c9565b8084526104538160208601602086016104d9565b61045c81610509565b9093016020019392505050565b602080825281016102e68184610434565b60405181810167ffffffffffffffff8111828210171561049957600080fd5b604052919050565b600067ffffffffffffffff8211156104b857600080fd5b506020601f91909101601f19160190565b5190565b82818337506000910152565b60005b838110156104f45781810151838201526020016104dc565b83811115610503576000848401525b50505050565b601f01601f19169056fea265627a7a723058202adf89b58aa1ff877356a20a4423268cf1570d0c819bf2eebb4daebf57ccfd736c6578706572696d656e74616cf50037",
  "source": "pragma solidity >=0.4.24;\npragma experimental ABIEncoderV2;\n\ncontract MedRec {\n\n    struct Date {\n        uint year;\n        uint month;\n        uint day;\n    }\n    \n    struct Patient{\n        string Name;\n        Date DOB;\n        Date DOA;\n        uint Age;\n        string problem;\n        string DoctorAssigned;\n    }\n    \n    mapping(uint => Patient) patients;\n    \n    function registration(uint patientID, string memory _name, uint _year, uint _month, uint _day, uint curr_year, uint curr_month, uint curr_day, string memory _problem, string memory _doctor) public  {\n        patients[patientID].Name = _name;\n        patients[patientID].DOB.year = _year;\n        patients[patientID].DOB.month = _month;\n        patients[patientID].DOB.day = _day;\n        patients[patientID].DOA.year = curr_year;\n        patients[patientID].DOA.month = curr_month;\n        patients[patientID].DOA.day = curr_day;\n        patients[patientID].Age = patients[patientID].DOA.year - patients[patientID].DOB.year;\n        patients[patientID].problem = _problem;\n        patients[patientID].DoctorAssigned = _doctor;\n   }\n    \n    function vewPatient(uint _ID) view public returns(string memory){\n        return patients[_ID].Name;\n    }\n}",
  "sourcePath": "/home/vinnoo/blockchain2/VendorNode/Projects/healthcare/contracts/MedRec.sol",
  "compiler": {
    "name": "solc",
    "version": "0.5.0+commit.1d4f565a.Emscripten.clang"
  },
  "schemaVersion": "3.0.1",
  "updatedAt": "2019-06-08T02:35:49.157Z",
  "devdoc": {
    "methods": {}
  },
  "userdoc": {
    "methods": {}
  }
}